:020000040800F2
:1000000000C000203D2B0008110B0008150B000854
:10001000190B00081D0B0008210B00080000000050
:10002000000000000000000000000000250B000898
:10003000290B0008000000002D0B0008310B000800
:10004000852B0008852B0008852B0008852B0008D0
:10005000852B0008852B0008852B0008852B0008C0
:10006000852B0008852B0008852B0008852B0008B0
:10007000852B0008852B0008350B0008450B000870
:10008000852B0008852B0008852B0008852B000890
:10009000852B0008852B0008852B0008852B000880
:1000A000852B0008852B0008852B0008852B000870
:1000B000852B0008852B0008852B0008852B000860
:1000C000852B0008852B0008852B0008852B000850
:1000D000852B0008550B0008852B0008852B000890
:1000E000852B0008852B0008852B0008852B000830
:1000F000852B0008852B0008852B0008852B000820
:10010000852B0008852B0008852B0008852B00080F
:10011000852B0008852B0008852B0008852B0008FF
:10012000852B0008852B0008852B0008852B0008EF
:1001300000000000000000000000000000000000BF
:1001400000000000000000000000000000000000AF
:10015000000000000000000000000000000000009F
:10016000000000000000000000000000000000008F
:10017000000000000000000000000000000000007F
:10018000000000000000000000000000000000006F
:10019000000000000000000000000000000000005F
:1001A000000000000000000000000000000000004F
:1001B000000000000000000000000000000000003F
:1001C000000000000000000000000000000000002F
:1001D000000000000000000000000000000000001F
:0401E0005FF8E0F1F3
:1001E40010B5054C237833B9044B13B10448AFF36D
:1001F40000800123237010BD7C0800200000000053
:10020400E4440008084B10B51BB108490848AFF393
:1002140000800848036803B910BD074B002BFBD0CE
:10022400BDE81040184700BF00000000800800200F
:10023400E44400087C0800200000000080EA010C6F
:100244001CF0030F37D110F0030C20F0030021F051
:10025400030150F8042B08BF51F8043B0ED08CF076
:10026400030C6FF07F434FEACC0C23FA0CFC51F8DB
:10027400043B42EA0C0243EA0C0300BFA2F1013C36
:100284009A4201BF2CEA020C1CF0803F50F8042B68
:1002940051F8043BF2D04FEA02604FEA12220128DF
:1002A40028BFB0EB036F08BF1B0AF4D003F0FF03B1
:1002B400000EC01A704710F0030F0AD010F8012B7B
:1002C40011F8013B012A28BF9A42F4D0A2EB0300A3
:1002D40070474DF8045D50F8042B01F0030521F03C
:1002E400030151F8043B022D26D04DD822F07F455E
:1002F400B5EB132FA2F1013C2CEA020C0DD11CF03A
:10030400803C08BF51F8043B0AD185EA0205B5EBED
:10031400036F0CD150F8042BE8E74FEA13235BE09A
:100324003CF07F4C54D10B784FEA126554E04FEA0D
:10033400126503F0FF034FE04FEA0245A2F1013CCE
:100344004FEA15452CEA020CB5EB134F18D11CF0FB
:10035400803C08BF51F8043B07D185EA0205B5EBA0
:10036400034F09D150F8042BE6E75FEA0C4C2FD178
:100374000B884FEA12452FE04FEA03434FEA124538
:100384004FEA134328E000BF02F0FF05B5EB136FFB
:10039400A2F1013C2CEA020C0DD11CF0803C08BFF8
:1003A40051F8043B0AD185EA0205B5EB032F0AD1C3
:1003B40050F8042BE8E74FEA13630DE012F0FF0F47
:1003C40006D051F8043B4FEA122523F07F4303E0A3
:1003D4004FF0000020BC704705F0FF0203F0FF005F
:1003E400012828BF904204BF2D0A1B0AF4D0A2EBB7
:1003F400000020BC704700BF844641EA000313F0AC
:10040400030349D1403A23D30B6803604B6843602C
:100414008B688360CB68C3600B6903614B6943617C
:100424008B698361CB69C3610B6A03624B6A436264
:100434008B6A8362CB6AC3620B6B03634B6B43634C
:100444008B6B8363CB6BC36340304031403ADBD268
:1004540030320BD30B6803604B6843608B68836056
:10046400CB68C36010301031103AF3D20C3205D38C
:1004740051F8043B40F8043B043AF9D2043208D062
:10048400D2071CBF11F8013B00F8013B01D30B88D4
:1004940003806046704700BF082A13D38B07B1D08E
:1004A40010F00303AED0C3F10403D21ADB071CBF60
:1004B40011F8013B00F8013BA4D331F8023B20F8CA
:1004C400023B9FE7043AD9D3013A11F8013B00F803
:1004D400013BF9D20B7803704B7843708B788370AF
:1004E4006046704700B583B00E4B5A6942F0010272
:1004F4005A615B6903F001030193019B00221146D9
:100504000E2000F089FD0E2000F0B8FD00221146F7
:100514000F2000F081FD0F2000F0B0FD03B05DF866
:1005240004FB00BF0010024030B589B000240494DD
:100534000594069407941C4B9A6942F020029A6130
:100544009A6902F020020192019A9A6942F0080223
:100554009A619A6902F008020292029A9A6942F038
:1005640004029A619B6903F004030393039B0F4DF8
:1005740022460421284601F08BF94FF400630493CA
:100584000594069404A90A4801F082F8042304930C
:100594000123059306940223079304A9284601F036
:1005A40077F809B030BD00BF0010024000140140CC
:1005B4000008014008B50A480A4B03600A4B43602F
:1005C40000238360C3604FF480420261436183610E
:1005D400C361036201F0CCFA08B100F073FA08BDFC
:1005E4009808002000580040A086010010B586B08D
:1005F400002302930393049305930268114B9A42D8
:100604001DD1114CA36943F00803A361A36903F04E
:1006140008030093009B4FF4406302931223039357
:100624000323059302A9094801F032F8E36943F46E
:100634008003E361E36903F480030193019B06B043
:1006440010BD00BF0058004000100240000C0140E3
:1006540010B500F0E1FB012407E00823054A214618
:10066400012000F04FFC0134E4B2072CF5D900F06E
:10067400D3FB10BD1045000870B582B006460D4688
:100684000E2900D90E250B4C08230B4A2178012092
:1006940000F038FC2178009508233246012000F050
:1006A4004DFC23785A1C2270072B01D102222270A0
:1006B40002B070BD100000202045000808B50823D2
:1006C400084A0321012000F01DFC0823064A0521E5
:1006D400012000F017FC0823044A0721012000F040
:1006E40011FC08BD304500083845000840450008A5
:1006F400F0B583B00F4615461E4601240094082326
:1007040002460321322000F019FC009408233A46E3
:100714000521322000F012FC009608232A46072106
:10072400322000F00BFC03B0F0BD00BF30B4002455
:1007340003E0A518455D0D5501349C42F9DB002307
:100744000B5530BC704700BF2DE9F84380460E4678
:1007540002F0D0FA04468146304602F0CBFA8442D5
:1007640006DA0F4802F0BEFA4FF0FF30BDE8F88316
:10077400074600240B4D3B46224629464046FFF7D8
:10078400D5FF29463046FFF759FD30B10134A14564
:10079400F0DC4FF0FF30BDE8F8832046BDE8F88375
:1007A40048450008EC08002030B589B00446664B83
:1007B4001B78052B01D8FFF75FFF634B1B7893B9B8
:1007C40062492046FFF7C0FF40B2614B1870B0F198
:1007D400FF3F00F0B7800A215E4800F0C5FA01220D
:1007E400594B1A70AEE0012B26D15B492046FFF726
:1007F400ABFF40B2564B1870B0F1FF3F09D1A1E0F6
:10080400591C00F10E021344E25C544B5A54CBB20F
:1008140000E000230C2BF3D90E23009308234F4A46
:100824000121084600F08AFB0D214D4800F09CFA96
:100834000222454B1A7085E0022B11D1494920460A
:10084400FFF782FF40B2424B1870B0F1FF3F79D0FE
:100854001021454800F088FA03223B4B1A7071E0DE
:10086400032B11D13F492046FFF76EFF40B2384BAE
:100874001870B0F1FF3F65D00D213C4800F074FAC8
:100884000422314B1A705DE0042B11D13549204606
:10089400FFF75AFF40B22E4B1870B0F1FF3F51D012
:1008A4000421334800F060FA0522274B1A7049E00E
:1008B400052B19D12B492046FFF746FF40B2244BA4
:1008C4001870B0F1FF3F3DD000F0A6FA0E2300935C
:1008D4000823224A0121084600F030FBFFF7EEFE10
:1008E4000622194B1A702DE0062B2BD121492046E4
:1008F400FFF72AFF40B2164B1870B0F1FF3F21D02A
:100904003023ADF80C303323ADF8103023185A7966
:100914008DF80C20DB798DF81030303BDBB20022EF
:1009240009E000F109011144655C08A9114401F8CA
:100934000C5C0132D2B29A42F3D305AA04A903A8EB
:10094400FFF7D6FE09B030BD500900205445000819
:100954000F000020604500086C45000800000020DE
:100964007C4500088C45000890450008A445000813
:10097400B4450008BC45000838B50A4D29780A4C2E
:100984002046FFF711FF00212970084B19702A78BF
:10099400204602F025F964222146054801F0E0FED4
:1009A40038BD00BF9D090020A00900209C0900203B
:1009B400480A002030B591B02822002106A802F090
:1009C4000FF90024019402940394049405940122E1
:1009D40006924FF4803307930A9202250D950E93E5
:1009E4004FF4E0130F9306A801F05EFA0F2301936E
:1009F400029503944FF4806304930594294601A857
:100A040001F0A4FC11B030BD08B500F0DBFAFFF72B
:100A1400D1FFFFF789FDFFF765FD00F0EDF8FFF763
:100A2400C9FD214C00220421204600F031FF00F0D2
:100A3400EFF9FFF70DFE1D480268D36843F0100379
:100A4400D36064221A4901F08BFE0122042120465E
:100A540000F01EFF174B1B7813F0FF0F05D0042185
:100A6400114800F01BFFFFF787FF4FF400611248A5
:100A740000F006FF0028EDD14FF400610E4800F0AD
:100A8400FFFE0028F8D00421074800F007FF0B4CB4
:100A940008212046FFF7F0FD0A21204600F064F902
:100AA4000122074B1A70D5E700140140480A0020C0
:100AB400A00900209C0900200008014060450008AE
:100AC40050090020704700BF82B00E4B9A6942F073
:100AD40001029A619A6902F001020092009ADA69AD
:100AE40042F08052DA61DB6903F080530193019B89
:100AF400054A536823F0E06343F00073536002B087
:100B0400704700BF0010024000000140704700BF62
:100B1400FEE700BFFEE700BFFEE700BFFEE700BF41
:100B2400704700BF704700BF704700BF704700BFE9
:100B340008B5024800F03AFC08BD00BF580900207F
:100B440008B5024800F032FC08BD00BF040A0020CA
:100B540008B500F0DFF8024801F058FF08BD00BFF7
:100B6400480A0020F8B50D461746002405E06E1C1F
:100B7400AFF30080287001343546BC42F7DB3846B9
:100B8400F8BD00BF70B51646002405E04D1C08787A
:100B9400AFF3008001342946B442F7DB304670BD20
:100BA40008B50B4B1B6813B90A4A094B1A60084B6A
:100BB4001A68131869468B4206D901F0E3FF0C2327
:100BC40003604FF0FF3008BD01490B60104608BDBB
:100BD40054090020C80A00204FF0FF30704700BFBE
:100BE4004FF400534B600020704700BF0120704752
:100BF40000207047704700BF08B50A480A4B0360DD
:100C04004FF4E133436000238360C36003610C222B
:100C140042618361C36101F02BFD08B1FFF752FF0C
:100C240008BD00BF480A00200038014070B586B0F6
:100C34000023029303930493059302682F4B9A4273
:100C44005AD1044603F558439A6942F480429A61A2
:100C54009A6902F480420092009A9A6942F004026E
:100C64009A619B6903F004030193019B4FF40073A1
:100C740002930223039303230593214E02A93046D2
:100C840000F006FD4FF4806302930025039504955C
:100C940002A9304600F0FCFC1A481B4B0360456077
:100CA40085608023C360056145618561C56100F08D
:100CB4001FFA08B1FFF706FF124B63635C62134827
:100CC400134B036010234360002383608022C260BF
:100CD400036143618361C36100F00AFA08B1FFF75D
:100CE400F1FE0A4B23635C6200221146252000F0CA
:100CF40093F9252000F0C2F906B070BD0038014018
:100D040000080140040A002058000240580900204D
:100D140044000240104B1B681A6812F0100F19D0DF
:100D240000B583B0002201921A6801925B680193B6
:100D3400019B094801F068FD084B1B685B68C3F11F
:100D44006403DBB2064A13700122064B1A7003B027
:100D54005DF804FB704700BF480A0020040A002025
:100D64009D0900209C09002008B50A460146034855
:100D740001F0B0FC08B1FFF7A5FE08BD480A002049
:100D840010B584B000240EE04FF480730293012365
:100D94000193074A2244009200227821054800F07A
:100DA400B7FF0134E4B21A2CEED904B010BD00BF71
:100DB400180000209808002000B587B006AA02F8A1
:100DC400010D4FF4807302930123019300920022DA
:100DD4007821034800F09CFF07B05DF804FB00BFD6
:100DE4009808002000B587B006AA02F8010D4FF458
:100DF40080730293012301930092402278210348D7
:100E040000F086FF07B05DF804FB00BF98080020DF
:100E140008B5FFF7B5FF08BD38B5002516E0A5F104
:100E24005000C0B2FFF7C8FF0020FFF7C5FF102035
:100E3400FFF7C2FF002404E00020FFF7D3FF0134D2
:100E4400E4B214F0800FF7D00135EDB2072DE6D9E6
:100E540038BD00BF10B504465039C8B2FFF7ACFF27
:100E6400200940F01000FFF7A7FF04F00F00FFF780
:100E7400A3FF10BDF8B507460E46203AD5B210F0D0
:100E8400800F02D00236F6B20027102B22D1314651
:100E94003846FFF7DFFF002407E004EB0513174A89
:100EA400D05CFFF79FFF0134E4B2072CF5D9711C25
:100EB400C9B23846FFF7CEFF002408E004EB05135F
:100EC40008330E4AD05CFFF78DFF0134E4B2072CDF
:100ED400F4D9F8BD31463846FFF7BCFF002409E0D9
:100EE40005EB45025300064A1344185DFFF77AFFE9
:100EF4000134E4B2052CF3D9F8BD00BFDC45000889
:100F0400BC4B00082DE9F04104460E4617469846AE
:100F140000250DE0434631462046FFF7ABFF083479
:100F2400E4B2782C02D90236F6B200240135EDB2CF
:100F34007A5D002AEED1BDE8F08100BF2DE9F843C7
:100F440004460E46914698469DF8207000250FE011
:100F5400434619F8052031462046FFF78BFF083435
:100F6400E4B2782C02D90236F6B200240135EDB28F
:100F7400BD42EDD9BDE8F88310B504460E4B187890
:100F84004FF47A73B3FBF0F30C4A1068B0FBF3F040
:100F940000F082F858B90F2C0BD8002221464FF0EC
:100FA400FF3000F039F8064B1C60002010BD012012
:100FB40010BD012010BD00BF380000201400002027
:100FC4003400002008B5074A136843F01003136087
:100FD400032000F00FF80020FFF7CEFFFFF774FDA9
:100FE400002008BD00200240014B1868704700BF74
:100FF400880A0020074AD36823F4E0631B041B0C0F
:10100400000200F4E060184340F0BF6040F4003098
:10101400D060704700ED00E030B4164BDB68C3F3DA
:101024000223C3F10704042C28BF04241D1D062D2C
:1010340001D9DD1E00E00025012303FA04F4013C7C
:101044002140A940AB40013B1A400A43002808DB79
:101054001201D2B200F1604000F5614080F8002333
:1010640005E000F00F001201D2B2034B1A5430BC59
:10107400704700BF00ED00E014ED00E0002808DB3D
:10108400420900F01F00012303FA00F0014B43F86A
:101094002200704700E100E00138B0F1807F0AD2FD
:1010A400064B5860F021064A82F82310002098600D
:1010B40007221A6070470120704700BF10E000E06B
:1010C40000ED00E070B4C56B066C0124B4406C60A4
:1010D400046863604368102B04D103689A60036852
:1010E400D96003E0036899600368DA6070BC7047F4
:1010F40000283AD010B4034601681E4A91420AD827
:101104001D4A0A441D49A1FB0212120992000264FD
:101114001B4AC26309E01B4A0A441849A1FB021294
:10112400120992000264184AC263022283F8212041
:101134001C68226822F47F5121F0300158689A68B3
:101144001043DA6810431A6910435A6910439A69C4
:101154001043DA6902430A432260002098630122A3
:1011640083F8212083F8200001E00120704710BC9F
:10117400704700BF07040240F8FFFDBFCDCCCCCCC4
:1011840000000240F8FBFDBF0004024038B590F8AF
:101194002040012C32D0012480F8204090F82140D6
:1011A400012C26D10446022084F821000020A063EB
:1011B4002568286820F0010028602046FFF782FF98
:1011C400E36A2BB12268136843F00E03136009E04D
:1011D4002268136823F0040313602268136843F041
:1011E4000A0313602268136843F0010313600020AC
:1011F40038BD002380F82030022038BD022038BDDD
:1012040090F82130022B06D004238363002380F856
:101214002030012070470268136823F00E03136026
:101224000268136823F001031360C16B036C01228D
:1012340002FA03F34B6080F82120002380F8203069
:101244001846704708B590F82130022B03D00423C8
:101254008363012008BD0268136823F00E03136042
:101264000268136823F00103136003684B4A934236
:1012740043D9783A934221D01432934220D0143285
:1012840093421FD0143293421FD0143293421FD082
:10129400143293421FD0143293421FD002F562726B
:1012A40093421ED0143293421DD0143293421CD068
:1012B400143293421CD14FF480521BE0012219E0F6
:1012C400102217E04FF4807214E04FF4805211E0C2
:1012D4004FF480320EE04FF480120BE04FF0807236
:1012E40008E0012206E0102204E04FF4807201E0DD
:1012F4004FF480322A4B5A6042E02A4A934221D06A
:101304001432934220D0143293421FD014329342A9
:101314001FD0143293421FD0143293421FD0143280
:1013240093421FD002F5627293421ED0143293424C
:101334001DD0143293421CD0143293421CD14FF46A
:1013440080521BE0012219E0102217E04FF4807252
:1013540014E04FF4805211E04FF480320EE04FF469
:1013640080120BE04FF0807208E0012206E01022A8
:1013740004E04FF4807201E04FF480320A4B5A606B
:10138400012380F82130002380F82030436B13B10F
:101394009847002008BD002008BD00BF800002401F
:1013A40000040240080002400000024038B5C36B4C
:1013B4001A6804682568016C04238B401A4200F003
:1013C4009D8015F0040F00F09980236813F0200F1E
:1013D40003D1236823F0040323600368A84A9342DB
:1013E40043D9783A934221D01432934220D0143214
:1013F40093421FD0143293421FD0143293421FD011
:10140400143293421FD0143293421FD002F56272F9
:1014140093421ED0143293421DD0143293421CD0F6
:10142400143293421CD14FF480421BE0042219E091
:10143400402217E04FF4806214E04FF4804211E040
:101444004FF480220EE04FF480020BE04FF08062F4
:1014540008E0042206E0402204E04FF4806201E048
:101464004FF48022874B5A6042E0874A934221D04E
:101474001432934220D0143293421FD01432934238
:101484001FD0143293421FD0143293421FD014320F
:1014940093421FD002F5627293421ED014329342DB
:1014A4001DD0143293421CD0143293421CD14FF4F9
:1014B40080421BE0042219E0402217E04FF48062CE
:1014C40014E04FF4804211E04FF480220EE04FF418
:1014D40080020BE04FF0806208E0042206E0402224
:1014E40004E04FF4806201E04FF48022674B5A60BD
:1014F400C36A002B00F0C380984738BD02238B4099
:101504001A4200F0A18015F0020F00F09D802368BC
:1015140013F0200F06D1236823F00A03236001236C
:1015240080F821300368564A934243D9783A93426B
:1015340021D01432934220D0143293421FD014325B
:1015440093421FD0143293421FD0143293421FD0BF
:10155400143293421FD002F5627293421ED01432A9
:1015640093421DD0143293421CD0143293421CD1A6
:101574004FF400521BE0022219E0202217E04FF43E
:10158400007214E04FF4005211E04FF400320EE008
:101594004FF400120BE04FF0007208E0022206E064
:1015A400202204E04FF4007201E04FF40032354B86
:1015B4005A6042E0344A934221D01432934220D0FC
:1015C400143293421FD0143293421FD014329342E8
:1015D4001FD0143293421FD0143293421FD002F50D
:1015E400627293421ED0143293421DD0143293423D
:1015F4001CD0143293421CD14FF400521BE002223F
:1016040019E0202217E04FF4007214E04FF4005266
:1016140011E04FF400320EE04FF400120BE04FF0F3
:10162400007208E0022206E0202204E04FF4007277
:1016340001E04FF40032154B5A60002380F820304B
:10164400836AE3B1984738BD082303FA01F10A42DB
:1016540015D015F0080F12D0236823F00E03236071
:10166400C16B026C012303FA02F24A60836380F8BF
:101674002130002380F82030036B03B1984738BD34
:1016840080000240000402400800024000000240C2
:10169400F0B583B000263446DEE00122A2401340B8
:1016A4009A4240F0D8804D68122D2DD00BD8022DCF
:1016B40027D003D85DB3012D1ED035E0032D30D0E3
:1016C400112D1BD030E0684FBD4220D008D8A7F5BB
:1016D4008017BD421BD007F58037BD4224D116E0E8
:1016E400624FBD4213D007F58037BD420FD0A7F536
:1016F4008017BD4218D10AE0CE6815E0CE680436E2
:1017040012E0CE6808360FE0CE680C360CE08D6827
:101714004DB1012D02D10261082605E0426108267F
:1017240002E0002600E00426FF2B01D8864601E0F3
:1017340000F1040EFF2B01D8A20002E0A4F108027C
:101744009200DEF800700F25954027EA050506FA99
:1017540002F22A43CEF800204A6812F0805F7AD061
:10176400434A956945F001059561926902F00102C9
:101774000192019AA708BD1C3E4A52F825E004F0E4
:10178400030292000F2595402EEA050E3A4DA84219
:1017940015D005F58065A84213D005F58065A842EB
:1017A40011D005F58065A8420FD005F58065A842E3
:1017B4000DD005F58065A8420BD105250AE000256A
:1017C40008E0012506E0022504E0032502E00425E3
:1017D40000E0062505FA02F24EEA02020237254D20
:1017E40045F827204A6812F4803F05D005F5806546
:1017F4002A681A432A6004E0204D2A6822EA030278
:101804002A604A6812F4003F04D01C4D6A681A43E7
:101814006A6004E0194D6A6822EA03026A604A6851
:1018240012F4801F04D0154DAA681A43AA6004E07C
:10183400124DAA6822EA0302AA604A6812F4001F41
:1018440004D00E4DEA681343EB6004E00B4DEA68E4
:1018540022EA0303EB6001340B6833FA04F27FF4E9
:101864001CAF03B0F0BD00BF000021100000311018
:101874000010024000000140000801400004014043
:101884008368194201D0012070470020704700BFCF
:101894000AB101617047090401617047C3680B42D2
:1018A40001D0416170470161704700BF03685A6904
:1018B40012F4806F11D06FF480625A6100230363C5
:1018C400202280F83D2080F83E30026C42F0040271
:1018D400026480F83C30012070470020704700BF4C
:1018E400F8B506460C4617461D4618E0B5F1FF3F0D
:1018F40015D0FFF779FB069BC01A854200D375B952
:1019040000233363202286F83D2086F83E30326C73
:1019140042F02002326486F83C300120F8BDC4F362
:101924000743012B08D133685B6924EA03039BB2A4
:10193400B3FA83F35B0907E033689B6924EA030382
:101944009BB2B3FA83F35B09BB42CFD00020F8BD4E
:10195400F8B504460D4616461F4633E023685A6917
:1019640012F4806F16D01A6842F400721A60236869
:101974006FF480625A6100232363202284F83D209F
:1019840084F83E30226C42F00402226484F83C3035
:101994000120F8BDB6F1FF3F14D0FFF725FBC01BB3
:1019A400864200D376B900232363202284F83D20A5
:1019B40084F83E30226C42F02002226484F83C30E9
:1019C4000120F8BDC5F30743012B08D123685B69E7
:1019D40025EA03039BB2003318BF012307E0236801
:1019E4009B6925EA03039BB2003318BF0123002B34
:1019F400B4D10020F8BD00BF70B504460D461646AC
:101A04001BE02046FFF752FFF0B9B5F1FF3F14D0B9
:101A1400FFF7EAFA801B854200D375B900232363DC
:101A2400202284F83D2084F83E30226C42F02002CB
:101A3400226484F83C30012070BD23685B6913F094
:101A4400800FDED0002070BD012070BD2DE9F04173
:101A540084B004460E46174698460B9D02681368E8
:101A640043F48073136000950A9B00224FF0011128
:101A7400FFF736FF002843D1236806F0FE061E61F7
:101A84002B460A9A24492046FFF762FF002839D1E1
:101A94000023039323685A6903929B690393039B6E
:101AA4002A460A992046FFF7A7FF034648B1236C4C
:101AB400042B29D12268136843F4007313600123B3
:101AC40025E0B8F1010F03D12268FFB217611EE0CF
:101AD40023683A0A1A612A460A992046FFF78CFFBE
:101AE400034648B1236C042B10D12268136843F4D5
:101AF4000073136001230AE02268FFB2176106E055
:101B0400012304E0012302E0012300E0012318463D
:101B140004B0BDE8F08100BF0200010070B50446C6
:101B24000D4616461BE02046FFF7C0FEF0B9B5F19E
:101B3400FF3F14D0FFF758FA801B854200D375B9D4
:101B440000232363202284F83D2084F83E30226C55
:101B540042F02002226484F83C30012070BD2368E6
:101B64005B6913F0040FDED0002070BD012070BD4E
:101B7400002800F0BF80F8B5044690F83D3013F01B
:101B8400FF0F04D1002380F83C30FEF72FFD2423FF
:101B940084F83D302268136823F00103136000F0D9
:101BA40093FC6268554B9A4205D8554B98428CBFBA
:101BB4000023012304E0534B98428CBF00230123EC
:101BC400002B40F09980504BA3FB00239B0C216811
:101BD4004A6822F03F021A434A6025682A6A22F0C2
:101BE4003F02666845498E4201D8013308E04FF44C
:101BF400967101FB03F34549A1FB03139B090133D0
:101C040013432B622568E96921F44F4121F0FF0158
:101C140066683A4B9E420AD8431E7000B3FBF0F04C
:101C24000130C0F30B00042838BF042035E0A3685A
:101C34005BB9421E06EB4607B2FBF7F20132C2F370
:101C44000B02B2FA82F252090CE0421E06EB86073E
:101C540007EB8707B2FBF7F20132C2F30B02B2FAC9
:101C640082F25209C2B953B9421E06EB4600B2FBD6
:101C7400F0F00130C0F30B0343F400400DE0421ECA
:101C840006EB860606EB8606B2FBF6F30133C3F3D6
:101C94000B0343F4404000E001200843E86121685D
:101CA4000B6823F0C002E069236A034313430B600B
:101CB40021688B6823F4034222F0FF022069E36861
:101CC400034313438B602168CB6823F0FF026069F0
:101CD400A36903431343CB602268136843F00103F1
:101CE400136000202064202384F83D30206384F8AE
:101CF4003E00F8BD012070470120F8BDA086010018
:101D04007F841E00FF083D0083DE1B43D34D621019
:101D14002DE9F04182B004460E4617469846FFF777
:101D240063F994F83D30DBB2202B40F093800546F4
:101D34000090192301224F492046FFF7D1FD0028C6
:101D440040F08A8094F83C30012B00F08780012316
:101D540084F83C3023681A6812F0010F03D11A6822
:101D640042F001021A602268136823F400631360CE
:101D7400212384F83D30402384F83E30002323643B
:101D8400089B6362BDF824306385638D23853A4BD9
:101D9400E36201950A9B009343463A463146204646
:101DA400FFF754FE002833D05AE02A460A99204609
:101DB400FFF722FE48B1236C042B53D12268136829
:101DC40043F40073136001234FE02368626A1278BE
:101DD4001A61616A4B1C6362228D013A92B22285B8
:101DE400638D9BB2013B9BB263852368586910F0F5
:101DF400040F0DD062B14A781A61636A01336362D9
:101E0400238D013B2385638D9BB2013B9BB263858C
:101E1400238D002BC9D12A460A992046FFF77EFE5E
:101E2400034648B1236C042B1ED12268136843F483
:101E340000731360012318E021680A6842F40072F9
:101E44000A60202284F83D20002284F83E2084F891
:101E54003C200AE0022308E0022306E0022304E017
:101E6400012302E0012300E00123184602B0BDE88B
:101E7400F08100BF020010000000FFFF82B0084B99
:101E84001B68084AA2FB03235B0A00FB03F00190D2
:101E940000BF019B5A1E0192002BF9D102B070477A
:101EA40014000020D34D6210002800F0EC8170B5BE
:101EB40082B00446036813F0010F6BD0A84B5B6833
:101EC40003F00C03042B0AD0A54B5B6803F00C034E
:101ED400082B0DD1A24B5B6813F4803F08D0A04BB4
:101EE4001B6813F4003F55D06368002B52D1CCE13A
:101EF4006368B3F5803F05D1994A136843F480338E
:101F0400136026E063B903F1804303F504331A68D0
:101F140022F480321A601A6822F480221A6018E0CF
:101F2400B3F5A02F0CD103F18043A3F53C331A6819
:101F340042F480221A601A6842F480321A6008E07F
:101F4400874B1A6822F480321A601A6822F48022BD
:101F54001A6063687BB1FFF747F8054605E0FFF7B1
:101F640043F8401B642800F292817D4B1B6813F4F4
:101F7400003FF4D00EE0FFF737F8054605E0FFF721
:101F840033F8401B642800F28481754B1B6813F4FA
:101F9400003FF4D1236813F0020F50D0704B5B68FC
:101FA40013F00C0F0AD06E4B5B6803F00C03082B84
:101FB40016D16B4B5B6813F4803F11D1684B1B68DF
:101FC40013F0020F03D02369012B40F06481644AAB
:101FD400136823F0F803616943EAC10313602EE038
:101FE4002369D3B101225F4B1A60FEF7FDFF05465A
:101FF40005E0FEF7F9FF401B022800F24E81584B22
:102004001B6813F0020FF4D0554A136823F0F80349
:10201400616943EAC103136011E00022514B1A6065
:10202400FEF7E2FF054605E0FEF7DEFF401B02284F
:1020340000F235814A4B1B6813F0020FF4D1236878
:1020440013F0080F29D0A369ABB10122464B1A60E3
:10205400FEF7CAFF054605E0FEF7C6FF401B02284F
:1020640000F21F813E4B5B6A13F0020FF4D0012093
:10207400FFF704FF11E000223B4B1A60FEF7B4FFA8
:10208400054605E0FEF7B0FF401B022800F20B8175
:10209400334B5B6A13F0020FF4D1236813F0040F7F
:1020A40000F08B802E4BDB6913F0805F0BD12C4B3F
:1020B400DA6942F08052DA61DB6903F080530193FC
:1020C400019B012500E00025284B1B6813F4807F49
:1020D40013D1264A136843F480731360FEF784FF18
:1020E400064605E0FEF780FF801B642800F2DD80D1
:1020F4001E4B1B6813F4807FF4D0E368012B05D1D9
:10210400174A136A43F00103136222E063B903F12F
:10211400804303F504331A6A22F001021A621A6A30
:1021240022F004021A6214E0052B09D10C4B1A6A3E
:1021340042F004021A621A6A42F001021A6208E0CA
:10214400074B1A6A22F001021A621A6A22F0040288
:102154001A62E368D3B1FEF747FF064610E000BFFA
:1021640000100240000042428004424200700040DD
:10217400FEF73AFF801B41F28833984200F29780C1
:10218400544B1B6A13F0020FF2D010E0FEF72CFF41
:10219400064607E0FEF728FF801B41F28833984289
:1021A40000F287804B4B1B6A13F0020FF2D125B16A
:1021B400484AD36923F08053D361E369002B7AD072
:1021C400444A526802F00C02082A4CD0022B37D140
:1021D4000022414B1A60FEF707FF054604E0FEF7B4
:1021E40003FF401B022868D83A4B1B6813F0007F9A
:1021F400F5D1236AB3F5803F06D136494B6823F401
:102204000032A36813434B603248436823F47411CB
:10221400236A626A13430B43436001222E4B1A6004
:10222400FEF7E2FE044604E0FEF7DEFE001B022891
:1022340045D8284B1B6813F0007FF5D0002047E0F9
:102244000022254B1A60FEF7CFFE044604E0FEF799
:10225400CBFE001B022834D81E4B1B6813F0007FF2
:10226400F5D1002034E0012B2DD01A4B5B6803F428
:102274008031226A914228D103F47013626A934236
:1022840025D0012024E001207047012020E0032014
:102294001EE003201CE001201AE0032018E00320C4
:1022A40016E0032014E0032012E0032010E00320D2
:1022B4000EE003200CE000200AE0032008E00320E5
:1022C40006E0032004E0012002E0012000E00020F9
:1022D40002B070BD001002406000424230B486B0CB
:1022E400164D02AC28686968AA68EB680FC42B8A8B
:1022F400ADF80430124B5B6803F00C02082A19D1C4
:10230400C3F3834206A90A4412F8100C13F4803F65
:102314000CD00B4B5B68C3F340430B4413F8142CF1
:10232400084B03FB00F0B0FBF2F004E0064B03FBA8
:1023340000F000E0034806B030BC7047FC440008DD
:102344000010024000127A0000093D00002800F04D
:102354009D8070B50446544B1B6803F007038B4201
:102364000BD2514A136823F007030B43136013681D
:1023740003F00703994240F08B80236813F0020FA7
:1023840017D013F0040F04D0484A536843F4E063B1
:102394005360236813F0080F04D0444A536843F48D
:1023A400605353604148436823F0F002A368134329
:1023B40043600D46236813F0010F2ED06268012A92
:1023C40005D13A4B1B6813F4003F0DD162E0022A99
:1023D40005D1364B1B6813F0007F05D15CE0334B0D
:1023E4001B6813F0020F59D030494B6823F00303E4
:1023F40013434B60FEF7F8FD064606E0FEF7F4FDD6
:10240400801B41F2883398424AD8284B5B6803F01A
:102414000C036268B3EB820FF0D1234B1B6803F00B
:1024240007039D420AD2204A136823F007032B4373
:102434001360136803F007039D4233D1236813F03C
:10244400040F06D019494B6823F4E062E368134390
:102454004B60236813F0080F07D0144A536823F421
:102464006053216943EAC1035360FFF737FF0F4B01
:102474005B68C3F303130E4AD35CD8400D4B18605A
:102484000D4B1868FEF778FD002070BD01207047E1
:10249400012070BD012070BD012070BD012070BD00
:1024A400032070BD012070BD0020024000100240D6
:1024B400C44500081400002034000020014B1868B3
:1024C400704700BF1400002008B5FFF7F7FF044B66
:1024D4005B68C3F30223034AD35CD84008BD00BF42
:1024E40000100240D445000808B5FFF7E7FF044B8D
:1024F4005B68C3F3C223034AD35CD84008BD00BF62
:1025040000100240D44500080268D36823F0C003D9
:10251400D360202380F83930704700BF0268D36845
:1025240023F49073D3600268536923F00103536169
:10253400202380F83A30704790F83930DBB2212BF1
:102544002BD18368B3F5805F0FD1036A02681B88BF
:10255400C3F30803536003691BB9036A02330362BC
:1025640009E0036A0133036205E00268036A591C47
:1025740001621B785360C38C9BB2013B9BB2C38442
:102584006BB90268D36823F08003D3600268D36810
:1025940043F04003D36000207047022070470020BE
:1025A400704700BF10B5044601680B6923F440521C
:1025B400C36813430B618168036919434369194371
:1025C4000068C26822F4B05323F00C030B43C360C9
:1025D40021684B6923F44072A36913434B61226859
:1025E400214B9A421FD1FFF77FFF216800EB800047
:1025F40000EB800063689B00B0FBF3F01B4BA3FB74
:1026040000246409642202FB140212013232A3FB87
:1026140002235B0903F0F00202EB041403F00F033E
:1026240023448B6010BDFFF74FFF216800EB80004F
:1026340000EB800063689B00B0FBF3F00B4BA3FB43
:1026440000246409642202FB140212013232A3FB47
:1026540002235B0903F0F00202EB041403F00F03FE
:1026640023448B6010BD00BF003801401F85EB512F
:1026740068B310B5044690F8393013F0FF0F04D155
:10268400002380F83830FEF7D1FA242384F8393057
:102694002268D36823F40053D3602046FFF782FFF7
:1026A4002268136923F4904313612268536923F069
:1026B4002A0353612268D36843F40053D360002093
:1026C400E063202384F8393084F83A3010BD0120C7
:1026D400704700BF38B590F83940E4B2202C31D1AE
:1026E400002931D0002A31D090F83830012B2FD076
:1026F40013460446012280F8382001628384C3848F
:102704000025C563212280F83920026B11489062AC
:10271400226B1148D062226B10481063226B556300
:1027240022680432206BFEF731FD23686FF040020B
:102734001A6084F838502268536943F08003536167
:10274400284638BD022038BD012038BD012038BDDF
:10275400022038BD6D280008BD280008C1290008E2
:1027640030B583B090F83A40E4B2202C3DD1002932
:102774003DD0002A3DD090F83830012B3BD0134691
:102784000A460446012180F83810826283850025B8
:10279400C563222180F83A10416B18488862616B46
:1027A4001748C862616B17480863616B4D63216801
:1027B4000431606BFEF7EAFC019523681A68019204
:1027C4005A680192019A84F83850DA6842F48072A7
:1027D400DA602268536943F0010353612268536944
:1027E40043F040035361284606E0022004E0012040
:1027F40002E0012000E0022003B030BDCD28000833
:10280400B1290008C129000810B5044601684B69C4
:1028140003F0800290F83930DBB2212B0BD152B196
:102824004B6923F080034B61006B08B1FEF7E8FCB1
:102834002046FFF769FE21684B6903F0400294F8D3
:102844003A30DBB2222B0BD152B14B6923F0400357
:102854004B61606B08B1FEF7D3FC2046FFF75EFEC8
:10286400002010BD704700BF08B5436A02681268B3
:1028740012F0200F0CD10022DA8419684A6922F080
:1028840080024A611A68D36843F04003D36008BDEC
:102894001846FFF7E7FF08BD08B50168CB6823F0C9
:1028A4004003CB60202380F83930FFF7DBFF0020A2
:1028B40008BD00BF704700BF08B5406AFFF7FAFFC4
:1028C40008BD00BF704700BF08B5436A02681268BC
:1028D40012F0200F13D10022DA851968CA6822F495
:1028E4008072CA6019684A6922F001024A61196853
:1028F4004A6922F040024A61202283F83A201846AD
:10290400FFF7E0FF08BD00BF08B590F83A30DBB22E
:10291400222B44D18368B3F5805F13D1826A0369A3
:1029240043B903685B68C3F308031380836A023303
:10293400836218E003685B68DBB21380836A013347
:10294400836210E0036933B9836A5A1C82620268A5
:1029540052681A7007E0826A531C836203685B68DA
:1029640003F07F031370C38D9BB2013B9BB2C385FD
:10297400BBB90268D36823F02003D3600268D3682C
:1029840023F48073D3600268536923F00103536115
:10299400202380F83A30FFF795FF002008BD02207D
:1029A40008BD002008BD00BF704700BF08B5406ADD
:1029B400FFF7FAFF08BD00BF704700BF10B5446AB7
:1029C40023685B6903F0800294F83930DBB2212B71
:1029D40005D122B10023E3842046FFF795FD236847
:1029E4005B6903F0400294F83A30DBB2222B05D144
:1029F40022B10023E3852046FFF790FDE36B43F00B
:102A04001003E3632046FFF7D7FF10BD10B504465B
:102A140002681368D168526913F00F0009D113F0EA
:102A2400200F06D011F0200F03D02046FFF76CFFD3
:102A340010BD002862D012F0010202D111F4907F7F
:102A44005CD013F0010F06D011F4807F03D0E06B4B
:102A540040F00100E06313F0040F04D01AB1E06BFE
:102A640040F00200E06313F0020F04D01AB1E06BEF
:102A740040F00400E06313F0080F04D01AB1E26BD5
:102A840042F00802E263E26B002A4AD013F0200FFE
:102A940005D011F0200F02D02046FFF735FF236840
:102AA4005B6903F04003E26B12F0080F00D1FBB145
:102AB4002046FFF733FD23685A6912F0400F13D004
:102AC4005A6922F040025A61636B4BB1154A5A634A
:102AD400606BFEF7B7FB20B3606B436B984710BD88
:102AE4002046FFF769FF10BD2046FFF765FF10BDC4
:102AF4002046FFF761FF0023E36310BD13F0800F4E
:102B040006D011F0800F03D02046FFF715FD10BD4D
:102B140013F0400F05D011F0400F02D02046FFF70C
:102B2400BBFE10BD2D2B000808B5406A0023C385E9
:102B3400C384FFF741FF08BD002103E00B4B5B5842
:102B4400435004310A480B4B42189A42F6D30A4ABE
:102B540002E0002342F8043B084B9A42F9D3FEF703
:102B640049F800F015F8FDF74FFF7047F44D0008E1
:102B7400000000207C0800207C080020C40A0020FB
:102B8400FEE70000014B1868704700BF680400208E
:102B940070B50F4E0F4D761BB61018BF002405D02C
:102BA400013455F8043B9847A642F9D10A4E0B4D1F
:102BB40001F096FC761BB61018BF002406D0013431
:102BC40055F8043B9847A642F9D170BD70BD00BFCB
:102BD400E84D0008E84D0008F04D0008E84D0008F5
:102BE40070B4840746D0541E002A41D0CDB20346A7
:102BF40002E0621EE4B3144603F8015B9A07F8D1BD
:102C0400032C2ED9CDB245EA05250F2C45EA0545FE
:102C140019D9264603F11002103E0F2E42F8105C1B
:102C240042F80C5C42F8085C42F8045C02F11002C1
:102C3400F2D8A4F1100222F00F0204F00F041032B3
:102C4400032C13440DD91E462246043A032A46F89F
:102C5400045BFAD8221F22F003020432134404F066
:102C640003042CB1C9B21C4403F8011BA342FBD1D9
:102C740070BC704714460346C2E700BFF0B5054672
:102C840089B008460C4600F035F8431C144F0393F2
:102C9400AB6B012604A9022204940590AC68069744
:102CA400079601910292B3B1B4F90C309A0406D498
:102CB400626E43F4005322F40052A38162662146FB
:102CC400284601AA00F0F0F8002814BF4FF0FF30A6
:102CD4000A2009B0F0BD284600F0C8F8E4E700BFB8
:102CE400B0450008024B01461868FFF7C7BF00BF94
:102CF4006804002020F0030110F00300C0F100007C
:102D040051F8043B00F1040C4FEACC0C6FF00002C4
:102D14001CBF22FA0CF213434FF0010C4CEA0C2CAA
:102D24004CEA0C4CA3EB0C0222EA030212EACC128A
:102D340004BF51F8043B0430F4D0C2F1000102EAAC
:102D44000102B2FA82F2C2F11F0200EBD200704714
:102D5400024B13B1024800F005B8704700000000B0
:102D6400852E0008002301461A46184601F05CB877
:102D7400014900F01DBA00BFF53E00082DE9F04FEF
:102D8400074635487D68002407F53B720423032178
:102D9400F863C7F8E412C7F8E822C7F8E04283B042
:102DA4002C606C60AC606C66EC812C616C61AC6115
:102DB400AB81214605F15C000822FFF711FFDFF823
:102DC4009CB0BE68DFF898A0DFF89890DFF8988090
:102DD40001230922C5F820B0C5F824A0C5F828901D
:102DE400C5F82C80ED612146F381B28106F15C00C7
:102DF40034607460B460746634617461B4610822D0
:102E04000193FFF7EDFEFD6812200222F661C6F879
:102E140020B0C6F824A0C6F82890C6F82C80214615
:102E2400A881EA812C606C60AC606C662C616C617A
:102E3400AC6105F15C000822FFF7D2FE019BED6155
:102E4400C5F820B0C5F824A0C5F82890C5F82C8092
:102E5400BB6303B0BDE8F08F752D0008B13C0008DA
:102E6400D53C0008113D0008313D0008836B03B1D7
:102E74007047FFF783BF00BF704700BF704700BFB4
:102E840038B5074D074C2C1BA41005D0013C55F850
:102E9400043D9847002CF9D1BDE8384001F026BB29
:102EA400F44D0008F04D00089368002B00F0AB804F
:102EB4002DE9F04F8B8985B00C4619070290164610
:102EC40028D5226932B303F002081FFA88F0356866
:102ED40078B34FF00009C846DFF8D0A2B8F1000F6C
:102EE40000F08B80D04543464A4628BF5346E169EB
:102EF4000298676AB847002840F3A580B368814404
:102F04001B1AC0EB0808B360002BE7D1002005B002
:102F1400BDE8F08F2146029800F022FF002840F01F
:102F24003C81A389356803F002081FFA88F0002861
:102F3400CFD113F0010940F090804F460196002F45
:102F440056D09A05D4F808805FD54745C246C0F0EC
:102F5400BF8013F4906F00F0BD806269206821691E
:102F640002EB4208C1EB000A08EBD8780AF1010031
:102F74004FEA680838444045424684BF804642468A
:102F84005B0540F1F2801146029800F039F983465E
:102F9400002800F0058152462169FDF72DFAA38926
:102FA40023F4906343F08003A381CAEB08030BEB83
:102FB4000A00C4F81480BA46B846C4F810B02060B9
:102FC400A3605246494600F00DFCA0682368C8EB94
:102FD4000000A060384653442360019A81449368FA
:102FE4003F1A1B1A9360002B90D0A389002FA8D1FD
:102FF400D5F800906F680835A1E7D5F80090D5F8AA
:10300400048008356AE700207047206823699842E5
:1030140003D86269974280F08380B84528BFB846D8
:103024004946424600F0DEFBA3682268C8EB03036E
:103034004244A3602260002B48D12146029801F04B
:103044003DF8002842D0B4F90C3043F040034FF06F
:10305400FF30A38105B0BDE8F08F804682468146EB
:103064000190B9F1000F29D0019B002B4BD0C8452A
:10307400C34628BFCB46206823695F4698426269ED
:1030840003D9A36813449B455CDC934524DB1346B6
:10309400676A5246E1690298B847071ED3DDB8EB68
:1030A400070827D0B368BA44DB1BC7EB0909B36030
:1030B400002B3FF42BAFB9F1000FD5D10023D5F885
:1030C40000A0D5F8049001930835CAE7404684E788
:1030D400B846BA46206874E75A46514600F082FB67
:1030E400A2682368CBEB02025B44B8EB0708A2603A
:1030F4002360D7D12146029800F0E0FF0028A2D136
:10310400CDF80480CEE74A460A21504600F024FB5D
:1031140000283DD001300123CAEB00080193A6E743
:103124006FF00043BB4228BF3B4693FBF2F3E169D7
:1031340002FB03F302984A46666AB04700283FF749
:103144004CAF80E71A465146039300F04BFB2268CC
:10315400039B21461A442260029800F0AFFF039BB0
:1031640000287FF470AF1F4699E7029800F0A2FB95
:10317400834600287FF419AF029D2169284601F097
:1031840001F8B4F90C300C2223F080032A605CE7C8
:10319400012309F10108019369E74FF0FF30B6E616
:1031A400029A0C231360B4F90C304EE700FCFF7F45
:1031B4002DE9F84310F538761ED0884607464FF0BF
:1031C40000097568B468013D10D4A389013D012B41
:1031D40008D9B4F90E30013304D021463846C0472B
:1031E40049EA00096B1C04F16804EED13668002E2C
:1031F400E7D14846BDE8F883B1464846BDE8F883C0
:103204002DE9F04F01F10B05162D83B0064640F26F
:10321400A08035F0070500F1C080A94200F2BD800E
:1032240000F044FBB5F5FC7FC0F090826B0A00F01F
:10323400BB80042B00F27781A80900F1390E4FEA14
:103244004E013830BE4F07EB81014C680839A1426A
:1032540007D1AEE0002A80F2AE80E468A14200F01B
:10326400A880636823F003035A1B0F2AF2DDB449D4
:103274003C6901F1080E744500F0A881636823F0ED
:1032840003035A1B0F2A00F38E81002AC1F814E0AD
:10329400C1F810E080F29380B3F5007F80F05C8188
:1032A400DB084A684FEAA3094FF0010C013351F8D7
:1032B40033800CFA09F901EBC30C49EA0202ACF1C0
:1032C400080CC4F80CC0C4F808804A6041F83340C4
:1032D400C8F80C40831001249C4094427CD81442CA
:1032E40006D120F003006400144200F10400FAD077
:1032F40007EBC009CC468046DCF80C108C4507D19E
:1033040066E1002A80F27481C9688C4500F060810E
:103314004B6823F003035A1B0F2AF2DD0C46CB68DB
:1033240054F808CF45F00108C1F804800D4442F078
:103334000101CCF80C303046C3F808C07D613D6112
:10334400C5F80CE0C5F808E06960AA5000F0B0FACE
:103354001FE0102921D800F0A9FA10250623022025
:10336400774F07EB83035C68A3F10802944200F0F3
:1033740038816368E16823F0030323445A68A5682D
:1033840042F00102E96030468D605A6000F090FA24
:103394000834204603B0BDE8F08F002420460C23F7
:1033A400336003B0BDE8F08F80214FF0400E3F2022
:1033B40048E770465BE723445A68E168DFE7234443
:1033C4005A68304642F001025A60083400F070FA3C
:1033D400204603B0BDE8F08FBC68636823F003089F
:1033E400A84504D3C5EB08030F2B00F38C80554B81
:1033F400DFF860911A68D9F800302A44013304EBED
:10340400080A00F0608102F580520F3222F47F62D4
:1034140022F00F0211463046019200F035FCB0F163
:10342400FF3F8346019A00F05881824500F2FC80F8
:10343400454BDA4519681144196000F05381D9F8F5
:103444000000DFF810E101301BBFCAEB0B0A514446
:10345400CEF800B019601BF0070100F01781C1F12C
:103464000800C1F58051834408315A44C2F30B0269
:10347400C2EB010949463046019300F005FC431CA8
:10348400019B00F03F81CBEB00024A4442F0010271
:103494001968BC424944C7F808B01960CBF8042045
:1034A400DFF8A49016D0B8F10F0F40F2FD806268E7
:1034B400A8F10C0323F0070302F00102E0184FF017
:1034C400050E1A430F2B6260C0F804E0C0F808E050
:1034D40000F21C811D4BBC681A68914288BF1960B8
:1034E4001B4B1A689142626888BF196022F003027C
:1034F4009542A2EB050301D80F2B04DC304600F003
:10350400D7F9002445E745F0010243F001032544BF
:1035140062603046BD6008346B6000F0C9F9204633
:1035240003B0BDE8F08F142B71D9542B00F2A480A2
:10353400280B00F16F0E4FEA4E016E3082E600BF99
:103544006C040020940A0020980A0020900A0020AD
:103554008C0A0020780800205A0A042A5ED9142A0A
:1035640000F2B38002F15C0149005B3207EB810C8D
:1035740057F82110ACF1080C8C45DFF8D88100F025
:1035840088804A6822F00302934202D289688C45FB
:10359400F7D1D1F80CC07A68C4F80CC0A160CCF89B
:1035A4000840CC6096E645F0010742F0010325444B
:1035B400676030464D610D61C5F80CE0C5F808E060
:1035C4006B60AA50083400F073F9E2E64A6881E6B9
:1035D40008F1010818F0030F0CF1080C7FF48CAE0D
:1035E40030E0DC68A34208BF02303FF440AEC0E6DE
:1035F4000C460B445A68C96854F8085F42F001024B
:103604005A603046E9608D6000F052F9C1E603F17A
:103614005C0E03F15B004FEA4E0113E69A0902F1D6
:10362400390149003832A1E7BC424A4B3FF400AFAC
:103634009C68626822F003025AE759F808399945F0
:1036440040F0828010F0030F00F1FF30F5D17B6869
:1036540023EA04037B6064009C423FF6BDAE002C69
:103664003FF4BAAE1C4240467FF442AE64001C42B2
:1036740000F10400FAD03BE6B3F5AA7F18D8E80BB2
:1036840000F1780E4FEA4E017730DBE54FF48051BC
:10369400EBE60121D8F80430921001FA02F21A4341
:1036A400C8F80420614677E70123CBF8043025E706
:1036B40040F25452934220D8A80C00F17D0E4FEAF8
:1036C4004E017C30BEE51032A4E6542A26D81A0BEB
:1036D40002F16F0149006E3248E7BC68626822F06B
:1036E400030205E7CAF30B0000287FF4A8AE4244A6
:1036F400BB6842F001025A60ECE6FE214FF07F0EF7
:103704007E209FE501224FF00009C1E604F1080183
:10371400304600F037FDD9F80010DBE6B2F5AA7F99
:1037240005D8DA0B02F17801490077321EE740F23E
:1037340054518A4205D89A0C02F17D0149007C3229
:1037440014E7FE217E2211E77B6884E7E808431C26
:103754005B0005E66C040020830770B4CDB23DD055
:10376400531E02B30278AA421ED0421C04E0D3B115
:103774000478013BAC4217D012F0030F104602F15B
:103784000102F4D1032B11D853B30278AA420BD00F
:103794000344421C02E00178A94205D0934210463A
:1037A40002F10102F7D1002070BC704704460E02FA
:1037B40006F47F462E4346EA0646226820467240B7
:1037C400A2F1013121EA020212F0803F04F1040463
:1037D400DBD1043B032B2046EFD8D5E71346D1E7D2
:1037E4001846E1E78842F0B50DD98B1898420AD201
:1037F4008118002A51D09A1A13F8014D934201F806
:10380400014DF9D1F0BD0F2A48D941EA00039B07C5
:1038140046D1154600F1100401F1100353F8106C61
:10382400103D44F8106C53F80C6C0F2D44F80C6CDC
:1038340053F8086C04F1100444F8186C53F8046C41
:1038440003F1100344F8146CE8D8A2F1100323F038
:103854000F0302F00F0E1033BEF1030F194403449B
:1038640021D90E4674461D1F56F8047B043C032CD4
:1038740045F8047FF8D8AEF1040424F003040434BA
:103884002344214402F0030262B1013B0A4411F8CB
:10389400014B8A4203F8014FF9D1F0BD0346F3E727
:1038A4000346F2E7F0BD7246EEE700BF704700BF83
:1038B400704700BF2DE9F04F174683B0002900F090
:1038C4008F800D46814607F10B04FFF7EFFF55F893
:1038D40004EC162C2EF00306A5F108083CD810229F
:1038E4001446A7423DD8964242DAC64B08EB06007E
:1038F40099688842416800F0D78021F001030344AD
:103904005B68DB074CD51EF0010F00F09D80394643
:103914004846FFF775FC074600283AD055F8043CA2
:10392400A0F1080223F0010343449A4200F03E81CF
:10393400321F242A00F22B81132A00F2FF8003464F
:103944002A46116819605168596092689A6029463C
:10395400484600F017FC1CE024F00704002C224623
:10396400BFDA0C230020C9F8003003B0BDE8F08FA3
:103974002F46331B0F2BD8F804201DD802F0010268
:10398400324308EB0601C8F804204B6843F00103F6
:103994004B604846FFF78CFF384603B0BDE8F08F14
:1039A40021F003013144914220DBC36882682F4631
:1039B400D3600E469A60DCE702F0010208EB0401D2
:1039C400144343F00102C8F804400B444A605A68A7
:1039D400083142F001025A60484600F0D3FBD8E7B0
:1039E400114603B0BDE8F04FFFF70ABC1EF0010F0B
:1039F4008DD155F8083CC3EB080ADAF8043023F0FB
:103A0400030C01EB0C0E964526DB5746C368816810
:103A1400321FCB60996057F8081FDAF80C30242A5B
:103A2400CB60996000F2C980132A40F292802B681F
:103A34001B2ACAF808306B68CAF80C3000F2CD8033
:103A440008350AF1100385E055F8083CC3EB080A71
:103A5400DAF8043023F0030C06EB0C039342FFF670
:103A640056AF5746DAF80C1057F8080F321F242ABD
:103A7400C160886000F2AA80132A40F2A5802968F8
:103A84001B2ACAF808106968CAF80C1000F2BC8036
:103A940008350AF1100229681E4611606968D0468B
:103AA4005160AB68936064E721F0030B04F11000EC
:103AB400B344834557DA1EF0010F7FF428AF55F85D
:103AC400081CC1EB080ADAF8041021F0030CE344E3
:103AD4005845C1DC5746DAF80C1057F8080F321F66
:103AE400242AC160886000F2B180132A40F2A280C7
:103AF40029681B2ACAF808106968CAF80C1000F271
:103B0400AC8008350AF110022968116069685160B7
:103B1400A9689160C4EB0B020AEB040142F00102B4
:103B240099604A60DAF80430484603F001031C4304
:103B3400CAF80440FFF7BCFE38462EE72B681B2A60
:103B440003606B68436026D800F1080305F108029E
:103B5400F7E63B462A6876461A606A68D0465A6099
:103B6400AA689A6005E7C4EB0B0B08EB04014BF061
:103B7400010299604A6055F8043C484603F0010389
:103B84001C4345F8044CFFF793FE284605E72946F5
:103B9400FFF728FEDBE6AB68242A8360EB68C3608A
:103BA40027D000F1100305F11002CAE650F8043CD6
:103BB4002F4623F003031E44DBE6294638467646A7
:103BC400D046FFF70FFED4E63A4664E72946384666
:103BD4001E46D046FFF706FECBE6AB68242ACAF899
:103BE4001030EB68CAF814301AD010350AF11803F3
:103BF400B0E72A6900F118030261696905F1180246
:103C040041619EE66C040020A968242ACAF81010B9
:103C1400E968CAF814100FD010350AF118023AE70F
:103C24002A690AF12003CAF818206A691835CAF803
:103C34001C208FE73A4667E729690AF12002CAF88F
:103C4400181069691835CAF81C1024E72946384643
:103C54000193FFF7C7FD019B5CE7A968242ACAF812
:103C64001010E968CAF8141003D010350AF11802CC
:103C74004AE729690AF12002CAF818106969183557
:103C8400CAF81C1040E700BF38B5074C00230546AE
:103C940008462360FCF784FF431C00D038BD23682A
:103CA400002BFBD02B6038BDC00A002010B50C4699
:103CB400B1F90E1000F0D8FB002803DB236D034498
:103CC400236510BDA38923F48053A38110BD00BFD5
:103CD4002DE9F0410C46B1F90C101F46CB051646F0
:103CE400054607D5B4F90E100223002200F032FB7A
:103CF400B4F90C1021F48051A1813B463246B4F949
:103D04000E102846BDE8F04100F014B810B50C467A
:103D1400B1F90E1000F01EFBA389421C0EBF23F460
:103D2400805343F480532065A38110BDB1F90E1074
:103D340000F0CCB870B50D46084C114606461A463C
:103D4400284600232360FCF71DFF431C00D070BDF0
:103D54002368002BFBD0336070BD00BFC00A002075
:103D640038B5304B054618680C4610B1836B002BF0
:103D740038D0B4F90C2093B218070CD52069A8B137
:103D840013F001021ED0636900225B42A361A260AA
:103D9400F0B1002038BDD9063BD5580725D4206999
:103DA40042F00803A3819BB20028E9D103F42072F6
:103DB400B2F5007FE4D02846214600F011FBA38928
:103DC4002069DDE7990758BF6269A2600028E0D145
:103DD400B4F90C301A06DDD543F04003A3814FF04B
:103DE400FF3038BDFFF742F8C3E7216B51B104F14E
:103DF4004003994204D0284600F0C4F9B4F90C20D9
:103E0400002323632069002322F0240284E80900AC
:103E1400C6E742F0400209232B604FF0FF30A28135
:103E240038BD00BF680400202DE9F047254C064644
:103E340025688846D5F8484192469946C4B36068D7
:103E44001F2817DC411C76B104EB8003C3F888A05B
:103E5400D4F88851012282401543022EC4F88851B7
:103E6400C3F808911ED0831C6160002044F82380AD
:103E7400BDE8F087144B03B34FF4C870AFF3008070
:103E84000446D0B1D5F84831002784E88800384684
:103E9400C5F848410121C4F88871C4F88C71002E1A
:103EA400E1D0D1E7D4F88C311A43C4F88C21DAE795
:103EB40005F5A674C5F84841C1E74FF0FF30BDE8E9
:103EC400F08700BFE44D00080000000038B5074C3F
:103ED4000023054608462360FCF77EFE431C00D001
:103EE40038BD2368002BFBD02B6038BDC00A0020EE
:103EF40000293DD070B505460C4608B1836B7BB3F1
:103F0400B4F90C300BB9002070BD2146284600F0EE
:103F140031F8E36A064633B1E16928469847002838
:103F2400B8BF4FF0FF36A3891B061CD4216B41B1E7
:103F340004F14003994202D0284600F023F90023FB
:103F44002363616C21B1284600F01CF900236364EB
:103F5400FEF792FF0023A381FEF790FF304670BD69
:103F6400FEF784FFCCE72169284600F00BF9DDE772
:103F740000207047B1F90C302DE9F0419AB20D469A
:103F8400110780463CD46A6843F40063002AAB817D
:103F940073DDAC6A002C4BD09BB203F48052002139
:103FA40092B2D8F80060C8F80010002A69D02A6DCF
:103FB4005F0705D569682B6B521A0BB1EB6BD21AEC
:103FC4000023E9694046A047441C3CD0B5F90C30B5
:103FD400296923F400630022AB81DB0485E8060031
:103FE40049D4296BC8F8006011B305F14003994224
:103FF40002D0404600F0C6F800202863BDE8F081F6
:104004002E69AEB190072C680CBF6B6900232E603B
:10401400A41BAB600AE0234632466F6AE969404656
:10402400B8470028A4EB0004064404DD002CF2DCAD
:104034000020BDE8F081AB894FF0FF3043F040032E
:10404400AB81BDE8F081D8F800201D2AF3D81A4BC3
:10405400D34003F0010383F00104002BEBD0B5F946
:104064000C30296923F400632960D9046C60AB81A6
:10407400B7D5002AB5D12865B3E7EA6B002A88DCF6
:10408400D6E70123E9694046A047431C024602D013
:10409400AB89AC6A8CE7D8F80030002BF8D01D2B24
:1040A40001D0162B02D1C8F80060C1E7AB8943F0F8
:1040B4004003AB81BDE8F0810100402010B5044607
:1040C40082B008B1836B53B1B1F90C0008B902B0E6
:1040D40010BD204602B0BDE81040FFF74BBF019170
:1040E400FEF7C4FE0199EFE7F8B50C46224F0646E9
:1040F400FFF7DCFBBB685D6825F00305291B01F6AF
:10410400EF7121F47F6121F00F01A1F58054B4F522
:10411400805F07DB00213046FFF7B6FDBB682B4408
:10412400984204D03046FFF7C3FB0020F8BD61423B
:104134003046FFF7A9FD01300DD0104BBA6819685D
:104144002D1B45F001053046091B55601960FFF72A
:10415400AFFB0120F8BD00213046FFF795FDBA689A
:10416400831A0F2BDEDD064C0449246843F0010357
:10417400001B53600860D5E76C040020980A0020F7
:1041840078080020002945D02DE9F0410D468046ED
:10419400FFF78CFB55F8047C6A49A5F1080427F065
:1041A4000103E2188E685068B24220F0030062D026
:1041B400FE0750600BD455F8087C01F1080EE41B8F
:1041C400A5683B4475456FD0E768EF60BD6015187E
:1041D4006D68ED0742D543F001026260E350B3F528
:1041E400007F18D2DB0848689D100122013351F882
:1041F400337002FA05F501EBC3022843083AE26082
:10420400A760486041F83340FC604046BDE8F04197
:10421400FFF74EBB70475A0A042A53D89A0902F191
:1042240039077F0002F1380501EB870051F8272098
:104234000838904243494DD0516821F003018B4224
:1042440002D292689042F7D1D068E060A2608460A4
:10425400D4604046BDE8F041FFF72ABB95683A4F69
:104264000344BD423FD0D06843F00102E86085605A
:104274006260E350B3E7FF07034407D455F8085CD2
:10428400641BE268A0682B44C26090602F4A43F02C
:1042940001001268606093428C60B6D32C4B404698
:1042A4001968FFF721FFB0E711184968C90744D41A
:1042B40091680344D26843F00100CA609160606071
:1042C400E350A2E7142A17D802F15C077F0002F139
:1042D4005B05A9E7AA104B68012505FA02F213430E
:1042E4004B600246B1E743F001024C610C61E560AA
:1042F400A5606260E35088E7542A06D81A0B02F1DD
:104304006F077F0002F16E058EE7B2F5AA7F06D82B
:10431400DA0B02F178077F0002F1770584E740F2B7
:104324005450824206D89A0C02F17D077F0002F1B4
:104334007C0579E7FE277E2576E743F0010262607B
:10434400E35062E76C040020740400207408002029
:10435400940A002070B50D46084C114606461A46CC
:10436400284600232360FCF743FC431C00D070BDA7
:104374002368002BFBD0336070BD00BFC00A00204F
:1043840070B50E46B1F90E1090B0002914461D46C2
:1043940014DB01AA00F07EF800280FDB029A4FF428
:1043A400806302F47042A2F50052B2FA82F24FF432
:1043B400006052092A60236010B070BDB2890020E9
:1043C40002F0800292B228601AB14023236010B038
:1043D40070BD10464FF48063236010B070BD00BF01
:1043E4008A890B46920706D501F1430201211A601E
:1043F4001A6159617047F0B583B001AB6A460C4647
:104404000546FFF7BDFF009906462846FEF7F8FE6D
:10441400B4F90C30D0B19DE80600124F43F080038C
:10442400EF63A3812060206161611AB93343A381E2
:1044340003B0F0BD2846B4F90E1000F03FF8B4F90B
:104444000C300028F2D043F00103EFE79A05EFD4D3
:1044540004F1430243F002030121A381226022619B
:104464006161E5E7752D000870B50D46084C1146ED
:1044740006461A46284600232360FCF773FB431CB8
:1044840000D070BD2368002BFBD0336070BD00BF2B
:10449400C00A002038B50B46074C0546114618469D
:1044A40000232360FCF79CFB431C00D038BD236829
:1044B400002BFBD02B6038BDC00A002038B5074C58
:1044C4000023054608462360FCF790FB431C00D0FC
:1044D40038BD2368002BFBD02B6038BDC00A0020F8
:1044E400F8B500BFF8BC08BC9E467047F8B500BFDD
:0844F400F8BC08BC9E467047AD
:1044FC0002030405060708090A0B0C0D0E0F101019
:10450C00010200002A2A2A2A2A2A2A2A2A2A2A2AA4
:10451C002A2A2A0020202020202020202020202091
:10452C0020202000636C69743A00000073697A657E
:10453C003A000000696E666F3A0000006572726F97
:10454C0072203120000000005749464920474F5443
:10455C002049500041542B43494653520D0A000048
:10456C002B43494653523A53544149502C000000B6
:10457C0041542B4349504D55583D310D0A00000014
:10458C004F4B000041542B43495053455256455212
:10459C003D310D0A0000000041542B434950535447
:1045AC004F3D300D0A00000041540D0A0000000080
:1045BC002B495044000000000000000000000000E7
:1045CC0001020304060708090000000001020304AD
:1045DC0000000000000000000000000000000000CF
:1045EC00000000F800000000000000333000000064
:1045FC0000100C06100C060000000000000000006B
:10460C0040C07840C0784000043F04043F040400DC
:10461C00007088FC08300000001820FF211E0000EC
:10462C00F008F000E018000000211C031E211E0001
:10463C0000F00888700000001E2123241927211087
:10464C0010160E000000000000000000000000002A
:10465C00000000E0180402000000000718204000D1
:10466C0000020418E00000000040201807000000C1
:10467C00404080F0804040000202010F0102020025
:10468C00000000F0000000000101011F0101010009
:10469C00000000000000000080B07000000000006E
:1046AC0000000000000000000001010101010101F7
:1046BC00000000000000000000303000000000008E
:1046CC000000000080601804006018060100000063
:1046DC0000E010080810E000000F102020100F0060
:1046EC00001010F8000000000020203F20200000E7
:1046FC00007008080888700000302824222130003F
:10470C0000300888884830000018202020110E0046
:10471C000000C02010F8000000070424243F2400EF
:10472C0000F80888880808000019212020110E00C4
:10473C0000E0108888180000000F112020110E00D6
:10474C0000380808C83808000000003F00000000CE
:10475C000070880808887000001C222121221C008F
:10476C0000E010080810E0000000312222110F00B8
:10477C00000000C0C000000000000030300000004D
:10478C0000000080000000000000806000000000BD
:10479C0000008040201008000001020408102000D6
:1047AC004040404040404000040404040404040021
:1047BC0000081020408000000020100804020100B6
:1047CC00007048080808F0000000003036010000B6
:1047DC00C030C828E810E0000718272423140B0069
:1047EC000000C038E0000000203C230202273820E3
:1047FC0008F8888888700000203F202020110E00C7
:10480C00C0300808080838000718202020100800BD
:10481C0008F808080810E000203F202020100F00A6
:10482C0008F88888E8081000203F20202320180072
:10483C0008F88888E8081000203F200003000000DA
:10484C00C03008080838000007182020221E02007B
:10485C0008F808000008F808203F210101213F203A
:10486C00000808F8080800000020203F2020000065
:10487C0000000808F8080800C08080807F00000055
:10488C0008F888C028180800203F2001263820008E
:10489C0008F8080000000000203F202020203000F5
:1048AC0008F8F800F8F80800203F003F003F20000F
:1048BC0008F830C00008F808203F200007183F0017
:1048CC00E01008080810E0000F10202020100F0046
:1048DC0008F808080808F000203F21010101000039
:1048EC00E01008080810E0000F18242438504F007E
:1048FC0008F8888888887000203F2000030C30203E
:10490C0000708808080838000038202121221C007B
:10491C00180808F8080818000000203F20000000C4
:10492C0008F808000008F808001F202020201F00AD
:10493C000878880000C83808000007380E0100000D
:10494C00F80800F80008F800033C0700073C0300D7
:10495C00081868808068180820302C03032C30203D
:10496C000838C800C83808000000203F20000000AC
:10497C0010080808C8380800203826212020180004
:10498C00000000FE020202000000007F40404000D8
:10499C00000C30C000000000000000010638C00010
:1049AC0000020202FE000000004040407F000000B8
:1049BC0000000402020204000000000000000000DD
:1049CC0000000000000000008080808080808080DB
:1049DC0000020204000000000000000000000000C3
:1049EC0000008080808000000019242222223F20B9
:1049FC0008F8008080000000003F112020110E00FC
:104A0C000000008080800000000E1120202011008A
:104A1C00000000808088F800000E112020103F203C
:104A2C000000808080800000001F222222221300C0
:104A3C00008080F0888888180020203F202000000B
:104A4C000000808080808000006B949494936000C0
:104A5C0008F8008080800000203F210000203F20CB
:104A6C0000809898000000000020203F20200000CB
:104A7C00000000809898000000C08080807F0000BB
:104A8C0008F8000080808000203F24022D30200098
:104A9C00000808F8000000000020203F2020000043
:104AAC008080808080808000203F20003F20003F5D
:104ABC008080008080800000203F210000203F206B
:104ACC000000808080800000001F202020201F001C
:104ADC00808000808000000080FFA12020110E004B
:104AEC000000008080808000000E112020A0FF803C
:104AFC00808080008080800020203F2120000100E9
:104B0C00000080808080800000332424242419003D
:104B1C00008080E0808000000000001F202000004A
:104B2C008080000000808000001F202020103F208B
:104B3C00808080000080808000010E30080601001B
:104B4C0080800080008080800F300C030C300F00C0
:104B5C0000808000808080000020312E0E312000EB
:104B6C00808080000080808080818E70180601001B
:104B7C0000808080808080000021302C2221300039
:104B8C0000000000807C020200000000003F40405A
:104B9C000002027C800000000040403F000000004A
:104BAC0000000000FF00000000000000FF000000FB
:104BBC000000000000000000002F000000000700B3
:104BCC00070000147F147F1400242A7F2A1200622D
:104BDC0064081323003649552250000005030000D9
:104BEC0000001C224100000041221C000014083E61
:104BFC0008140008083E0808000000A06000000827
:104C0C00080808080000606000000020100804027A
:104C1C00003E5149453E0000427F40000042615138
:104C2C004946002141454B31001814127F100027D2
:104C3C0045454539003C4A49493000017109050395
:104C4C0000364949493600064949291E00003636C6
:104C5C000000000056360000000814224100001429
:104C6C001414141400004122140800020151090606
:104C7C0000324959513E007C1211127C007F494987
:104C8C004936003E41414122007F4141221C007FB8
:104C9C0049494941007F09090901003E4149497AC6
:104CAC00007F0808087F0000417F41000020404140
:104CBC003F01007F08142241007F40404040007FAC
:104CCC00020C027F007F0408107F003E4141413EF0
:104CDC00007F09090906003E4151215E007F091938
:104CEC0029460046494949310001017F0101003F35
:104CFC004040403F001F2040201F003F4038403FB5
:104D0C000063140814630007087008070061514918
:104D1C00454300007F41410000552A552A550000AB
:104D2C0041417F0000040201020400404040404029
:104D3C00000001020400002054545478007F4844C1
:104D4C00443800384444442000384444487F0038F8
:104D5C005454541800087E0901020018A4A4A47C21
:104D6C00007F080404780000447D400000408084EB
:104D7C007D00007F102844000000417F4000007C33
:104D8C0004180478007C080404780038444444383F
:104D9C0000FC242424180018242418FC007C08048B
:104DAC00040800485454542000043F444020003C64
:104DBC004040207C001C2040201C003C4030403CEB
:104DCC00004428102844001CA0A0A07C004464547B
:0C4DDC004C441414141414144000002063
:084DE800552D00080902000826
:044DF000E5010008D1
:104DF4003E7878782E7878782E782E78787800FF38
:104E0400020000000024F400AE001040B081FFA1B5
:104E1400A6A83FC8D300D580D805D9F1DA12D83076
:104E24008D14AF001000000001000000000000001D
:104E3400000000002C03002094030020FC03002049
:104E4400000000000000000000000000000000005E
:104E5400000000000000000000000000000000004E
:104E6400000000000000000000000000000000003E
:104E7400000000000000000000000000000000002E
:104E8400000000000000000000000000000000001E
:104E9400000000000000000000000000000000000E
:104EA40000000000000000000000000000000000FE
:104EB40000000000000000000000000000000000EE
:104EC40000000000000000000000000000000000DE
:104ED40000000000000000000100000000000000CD
:104EE4000E33CDAB34126DE6ECDE05000B00000092
:104EF40000000000000000000000000000000000AE
:104F0400000000000000000000000000000000009D
:104F1400000000000000000000000000000000008D
:104F2400000000000000000000000000000000007D
:1052540000000000000000004000002000000000EA
:10526400000000006C0400206C0400207404002082
:10527400740400207C0400207C04002084040020AA
:10528400840400208C0400208C040020940400205A
:10529400940400209C0400209C040020A40400200A
:1052A400A4040020AC040020AC040020B4040020BA
:1052B400B4040020BC040020BC040020C40400206A
:1052C400C4040020CC040020CC040020D40400201A
:1052D400D4040020DC040020DC040020E4040020CA
:1052E400E4040020EC040020EC040020F40400207A
:1052F400F4040020FC040020FC0400200405002029
:10530400040500200C0500200C05002014050020D5
:10531400140500201C0500201C0500202405002085
:10532400240500202C0500202C0500203405002035
:10533400340500203C0500203C05002044050020E5
:10534400440500204C0500204C0500205405002095
:10535400540500205C0500205C0500206405002045
:10536400640500206C0500206C05002074050020F5
:10537400740500207C0500207C05002084050020A5
:10538400840500208C0500208C0500209405002055
:10539400940500209C0500209C050020A405002005
:1053A400A4050020AC050020AC050020B4050020B5
:1053B400B4050020BC050020BC050020C405002065
:1053C400C4050020CC050020CC050020D405002015
:1053D400D4050020DC050020DC050020E4050020C5
:1053E400E4050020EC050020EC050020F405002075
:1053F400F4050020FC050020FC0500200406002024
:10540400040600200C0600200C06002014060020D0
:10541400140600201C0600201C0600202406002080
:10542400240600202C0600202C0600203406002030
:10543400340600203C0600203C06002044060020E0
:10544400440600204C0600204C0600205406002090
:10545400540600205C0600205C0600206406002040
:10546400640600206C0600206C06002074060020F0
:10547400740600207C0600207C06002084060020A0
:10548400840600208C0600208C0600209406002050
:10549400940600209C0600209C060020A406002000
:1054A400A4060020AC060020AC060020B4060020B0
:1054B400B4060020BC060020BC060020C406002060
:1054C400C4060020CC060020CC060020D406002010
:1054D400D4060020DC060020DC060020E4060020C0
:1054E400E4060020EC060020EC060020F406002070
:1054F400F4060020FC060020FC060020040700201F
:10550400040700200C0700200C07002014070020CB
:10551400140700201C0700201C070020240700207B
:10552400240700202C0700202C070020340700202B
:10553400340700203C0700203C07002044070020DB
:10554400440700204C0700204C070020540700208B
:10555400540700205C0700205C070020640700203B
:10556400640700206C0700206C07002074070020EB
:10557400740700207C0700207C070020840700209B
:10558400840700208C0700208C070020940700204B
:10559400940700209C0700209C070020A4070020FB
:1055A400A4070020AC070020AC070020B4070020AB
:1055B400B4070020BC070020BC070020C40700205B
:1055C400C4070020CC070020CC070020D40700200B
:1055D400D4070020DC070020DC070020E4070020BB
:1055E400E4070020EC070020EC070020F40700206B
:1055F400F4070020FC070020FC070020040800201A
:10560400040800200C0800200C08002014080020C6
:10561400140800201C0800201C0800202408002076
:10562400240800202C0800202C0800203408002026
:10563400340800203C0800203C08002044080020D6
:10564400440800204C0800204C0800205408002086
:10565400540800205C0800205C0800206408002036
:0C5664006408002000000200FFFFFFFFB0
:0400000508002B3D87
:00000001FF
